:100000000C9415030C943D030C943D030C943D0398
:100010000C943D030C9443160C943D030C946A1706
:100020000C943D030C943D030C943D030C94781701
:100030000C943D030C94F8150C943D030C943D0373
:100040000C948F140C943D030C943D030C943D03CD
:100050000C943D030C943D030C943D030C943D0320
:100060000C94D9140C943D0300000000003E5B4F3B
:100070005B3E3E6B4F6B3E1C3E7C3E1C183C7E3C08
:10008000181C577D571C1C5E7F5E1C00183C180016
:10009000FFE7C3E7FF0018241800FFE7DBE7FF30A6
:1000A000483A060E2629792926407F050507407F14
:1000B00005253F5A3CE73C5A7F3E1C1C08081C1C87
:1000C0003E7F14227F22145F5F005F5F06097F017D
:1000D0007F006689956A606060606094A2FFA29468
:1000E00008047E040810207E201008082A1C080836
:1000F0001C2A08081E101010100C1E0C1E0C303884
:100100003E3830060E3E0E06000000000000005F84
:1001100000000007000700147F147F14242A7F2AA0
:100120001223130864623649562050000807030062
:10013000001C2241000041221C002A1C7F1C2A08AE
:10014000083E080800807030000808080808000011
:1001500060600020100804023E5149453E00427F85
:10016000400072494949462141494D331814127FD4
:100170001027454545393C4A494931412111090774
:100180003649494936464949291E000014000000F5
:1001900040340000000814224114141414140041C7
:1001A00022140802015909063E415D594E7C121184
:1001B000127C7F494949363E414141227F414141BC
:1001C0003E7F494949417F090909013E4141517337
:1001D0007F0808087F00417F41002040413F017FA8
:1001E000081422417F404040407F021C027F7F0470
:1001F00008107F3E4141413E7F090909063E4151B9
:10020000215E7F09192946264949493203017F01A8
:10021000033F4040403F1F2040201F3F4038403FA9
:10022000631408146303047804036159494D4300BF
:100230007F4141410204081020004141417F0402F6
:10024000010204404040404000030708002054548D
:1002500078407F284444383844444428384444286B
:100260007F385454541800087E090218A4A49C78BE
:100270007F0804047800447D40002040403D007F1A
:100280001028440000417F40007C047804787C08FA
:100290000404783844444438FC18242418182424CE
:1002A00018FC7C08040408485454542404043F44B3
:1002B000243C4040207C1C2040201C3C4030403CE2
:1002C00044281028444C9090907C4464544C440042
:1002D00008364100000077000000413608000201A6
:1002E0000204023C2623263C1EA1A161123A404092
:1002F000207A38545455592155557941225454780F
:1003000042215554784020545579400C1E527212A7
:100310003955555559395454545939555454580030
:1003200000457C410002457D420001457C407D1234
:1003300011127DF0282528F07C5455450020545496
:100340007C547C0A097F4932494949323A44444441
:100350003A324A4848303A4141217A3A424020787C
:10036000009DA0A07D3D4242423D3D4040403D3C7D
:1003700024FF2424487E4943662B2FFC2F2BFF09A2
:1003800029F620C0887E0903205454794100004496
:100390007D413048484A32384040227A007A0A0A81
:1003A000727D0D19317D2629292F282629292926F4
:1003B00030484D4020380808080808080808382F39
:1003C00010C8ACBA2F102834FA00007B00000814C3
:1003D0002A142222142A14085500550055AA55AA99
:1003E00055AAFF55FF55FF000000FF00101010FF39
:1003F00000141414FF001010FF00FF1010F010F094
:10040000141414FC001414F700FF0000FF00FF1484
:1004100014F404FC141417101F10101F101F1414D0
:10042000141F00101010F0000000001F101010101A
:100430001F10101010F010000000FF10101010100E
:1004400010101010FF10000000FF140000FF00FF4C
:1004500000001F10170000FC04F4141417101714E8
:1004600014F404F40000FF00F7141414141414140A
:10047000F700F7141414171410101F101F1414147D
:10048000F4141010F010F000001F101F0000001FE7
:1004900014000000FC140000F010F01010FF10FF1A
:1004A000141414FF141010101F00000000F010FFAF
:1004B000FFFFFFFFF0F0F0F0F0FFFFFF0000000093
:1004C00000FFFF0F0F0F0F0F3844443844FC4A4A17
:1004D0004A347E02020606027E027E0263554941CC
:1004E000633844443C04407E201E2006027E020203
:1004F00099A5E7A5991C2A492A1C4C7201724C3017
:100500004A4D4D303048784830BC625A463D3E49ED
:100510004949007E0101017E2A2A2A2A2A44445F91
:10052000444440514A444040444A51400000FF0185
:1005300003E080FF000008086B6B08361236243693
:10054000060F090F060000181800000010100030F8
:1005500040FF0101001F01011E00191D1712003C80
:100560003C3C3C0000000000EF03038002CF03008E
:10057000C130ED0464031281E803850078CB0539AE
:100580002C003402F70120EA020000C00123C1015F
:1005900010C5023E28C701863601483701003A01DE
:1005A00055B1020018B603088227F20100260101A6
:1005B000E00F0F312B0C0E084EF1370710030E0918
:1005C00000E10F000E1403110731C148080F0C3170
:1005D000360F118029800000000000240027002A27
:1005E00000000000080002010000030407000000F2
:1005F00000000000000102040810204080010204F5
:100600000810200102040810200000000025002826
:10061000002B000404040404040404020202020285
:100620000203030303030300191811241FBECFEFB5
:10063000D8E0DEBFCDBF11E0A0E0B1E0E6EEF4E32C
:1006400002C005900D92AE35B107D9F722E0AEE5B4
:10065000B1E001C01D92A43DB207E1F713E0C5E18E
:10066000D3E004C02197FE010E94661AC431D1076D
:10067000C9F70E94CA180C94711A0C94000080915A
:10068000C9019091CA01891B990B0895FC01A5A18C
:10069000B6A18C9192A589238C93A5A1B6A18C912A
:1006A00091A5892B8C9308950F931F93CF93DF937C
:1006B000EC018B018DA981110DC01EBD0DB407FE8B
:1006C000FDCF0EBD0DB407FEFDCFDF91CF911F9181
:1006D0000F9108958130E9F480E1E9A1FAA19081B8
:1006E00017FF14C02DA1922B9083EBA1FCA1908148
:1006F0002FA1922B9083EBA1FCA1908128A592239E
:100700009083000F111F815041F7DFCF2EA192235C
:10071000EBCFEF8DF8A11083CE010E944603EF8D41
:10072000F8A10083CE01DF91CF911F910F910C941E
:100730004603FC0185A9811105C06EBD0DB407FEFD
:10074000FDCF08958130E1F488E0A1A1B2A19C9190
:1007500067FF13C025A1922B9C93A3A1B4A19C91E8
:1007600027A1922B9C93660FA3A1B4A19C9120A5D5
:1007700092239C93815049F7089526A19223ECCFB0
:10078000A78DB0A16C93CF010C944603CF93DF9358
:10079000EC01ED8DFE8D80819CA989238083CE01A3
:1007A0000E949903ED8DFE8D80819BA9892B80830A
:1007B000DF91CF910895FC0185A9811104C091A119
:1007C00082A19CBD8DBD08951F93CF93DF93EC0153
:1007D000162FE881F9810284F385E02D0995112314
:1007E00071F06DADCE010E94C603E881F9810688E3
:1007F000F789E02DCE01DF91CF911F9109946EAD65
:10080000F1CFAF92BF92CF92DF92EF92FF920F9310
:100810001F93CF93DF93EC0177FD38C088859985CE
:10082000681779079CF557FD31C08A859B85481765
:10083000590764F569017A015B01E881F981028455
:10084000F385E02DCE010995E881F98102A4F3A595
:10085000E02D01E010E021E030E0A701B501CE017C
:100860000995B601CE010E945403E881F9810688FA
:10087000F789E02DCE01DF91CF911F910F91FF906D
:10088000EF90DF90CF90BF90AF900994DF91CF9120
:100890001F910F91FF90EF90DF90CF90BF90AF909E
:1008A00008958F929F92AF92BF92CF92DF92EF9274
:1008B000FF920F931F93CF93DF93EC0149015701F0
:1008C000E881F98102A4F3A5E02D09959401D801EE
:1008D0000E94481A6B017C01C114D104E104F104A7
:1008E00009F490C08DA9811115C081E0C81AD10802
:1008F000E108F1088FEFC816D806E806F80609F4F3
:1009000081C0BEBC0DB407FEFDCFAEBC0DB407FE6A
:10091000FDCFEBCF813009F045C081E0C81AD10886
:10092000E108F1088FEFC816D806E806F80609F4C2
:1009300069C09B2D88E0E9A1FAA1208197FF2CC016
:100940003DA1232B2083EBA1FCA120813FA1232BE0
:100950002083EBA1FCA1208138A523232083990FBC
:10096000815049F79A2D88E0E9A1FAA1208197FFEB
:1009700016C03DA1232B2083EBA1FCA120813FA128
:10098000232B2083EBA1FCA1208138A523232083E6
:10099000990F815049F7C1CF3EA12323D3CF3EA168
:1009A0002323E9CFBA1016C0CC0CDD1CEE1CFF1CB3
:1009B000EF8DF8A1B08281E0C81AD108E108F108F2
:1009C0008FEFC816D806E806F806E1F0CE010E94BF
:1009D0004603F1CF81E0C81AD108E108F1088FEF92
:1009E000C816D806E806F80669F0EF8DF8A1B082BF
:1009F000CE010E944603EF8DF8A1A082CE010E9495
:100A00004603E8CFDF91CF911F910F91FF90EF90B8
:100A1000DF90CF90BF90AF909F908F9008958F926E
:100A20009F92AF92BF92CF92DF92EF92FF920F937D
:100A30001F93CF93DF935C014B016A01E90177FDBE
:100A400052C0DC0118968D919C91681779070CF0C3
:100A50004AC0209709F447C037FF07C0C901019673
:100A6000C80ED91ED195C195D109F501828593850E
:100A7000C816D906C4F5A6014C0F5D1F9A01215076
:100A8000310937FD30C0D7FE03C0EA01D12CC12C9B
:100A9000281739071CF0EC01CC19DD09D501ED91BF
:100AA000FC910284F385E02DC501099578018E0142
:100AB00021E030E0A601B401C5010E945104D50136
:100AC000ED91FC910688F789E02DC501DF91CF916A
:100AD0001F910F91FF90EF90DF90CF90BF90AF905C
:100AE0009F908F900994DF91CF911F910F91FF906C
:100AF000EF90DF90CF90BF90AF909F908F90089530
:100B00008F929F92AF92BF92CF92DF92EF92FF921D
:100B10000F931F93CF93DF935C016B014A01E901AF
:100B200057FD52C0DC011A968D919C9148175907C8
:100B30000CF04AC0209709F447C037FF07C0C9012D
:100B40000196C80ED91ED195C195D109F5018085B0
:100B50009185C816D906C4F5A6014C0F5D1F9A01F0
:100B60002150310937FD30C0D7FE03C0EA01D12C36
:100B7000C12C281739071CF0EC01CC19DD09D5016F
:100B8000ED91FC910284F385E02DC5010995780172
:100B900001E010E09E01A401B601C5010E945104CC
:100BA000D501ED91FC910688F789E02DC501DF9113
:100BB000CF911F910F91FF90EF90DF90CF90BF905A
:100BC000AF909F908F900994DF91CF911F910F91DB
:100BD000FF90EF90DF90CF90BF90AF909F908F905D
:100BE00008958F929F92AF92BF92CF92DF92EF9231
:100BF000FF920F931F93CF93DF934C016B015A0128
:100C0000E901209709F46CC00115110509F468C0C9
:100C100037FF07C0C9010196C80ED91ED195C195ED
:100C2000D109F401A085B185CA16DB060CF058C0C5
:100C300017FF07C0C8010196A80EB91E11950195AE
:100C40001109F40182859385A816B9060CF048C0F5
:100C5000F601EC0FFD1FAF014150510957FD40C097
:100C6000B501600F711F9B012150310937FD38C05C
:100C7000D7FE03C0EF01D12CC12CB7FE03C08B01FE
:100C8000B12CA12C4A175B071CF0ED01CC19DD0932
:100C9000281739071CF08C010A191B09D401ED91A2
:100CA000FC910284F385E02DC40109959E01A50104
:100CB000B601C4010E945104D401ED91FC91068853
:100CC000F789E02DC401DF91CF911F910F91FF9023
:100CD000EF90DF90CF90BF90AF909F908F9009944E
:100CE000DF91CF911F910F91FF90EF90DF90CF9008
:100CF000BF90AF909F908F900895EF92FF920F93C7
:100D00001F93CF93DF9377FD32C0DC011896ED91EE
:100D1000FC916E177F075CF52115310541F137FF16
:100D200007C0F90131964E0F5F1F319521953109AA
:100D3000DC011A96ED91FC914E175F07C4F4EA01AD
:100D4000C20FD31FDE011197B7FD11C057FF03C0BB
:100D50009E0150E040E0AE17BF071CF09F01241B2E
:100D6000350B7801890121E030E00E945104DF91C8
:100D7000CF911F910F91FF90EF900895EF92FF9206
:100D80000F931F93CF93DF9357FD31C0DC011A9669
:100D9000ED91FC914E175F0754F52115310539F19E
:100DA00037FF07C0F90131966E0F7F1F31952195EE
:100DB0003109DC011896ED91FC916E177F07BCF4A8
:100DC000EB01C20FD31FDE011197B7FD10C077FFF3
:100DD00003C09E0170E060E0AE17BF071CF09F01EA
:100DE000261B370B780101E010E00E945104DF91CF
:100DF000CF911F910F91FF90EF9008958F929F9246
:100E0000AF92BF92CF92DF92EF92FF920F931F9318
:100E1000CF93DF9347012115310509F44BC001152C
:100E2000110509F447C037FF07C0F90131966E0F6D
:100E30007F1F319521953109DC011896AD90BC904A
:100E40006A157B05BCF517FF07C0F80131964E0FF8
:100E50005F1F119501951109DC011A96ED91FC9126
:100E60004E175F073CF56B01C20ED31EE6012197BA
:100E7000D7FD20C07A01E00EF11ED7011197B7FD12
:100E800019C077FF03C0960170E060E057FF03C010
:100E9000870150E040E0CA15DB051CF09501261BD8
:100EA000370BAE17BF071CF08F01041B150B740125
:100EB0000E945104DF91CF911F910F91FF90EF900D
:100EC000DF90CF90BF90AF909F908F900895EF925A
:100ED000FF920F931F93CF93DF93EC0177FD22C016
:100EE0008885998568177907ECF457FD1BC08A85BA
:100EF0009B8548175907B4F47901E881F98102A468
:100F0000F3A5E02D01E010E021E030E0CE010995ED
:100F1000B701CE01DF91CF911F910F91FF90EF901C
:100F20000C945403DF91CF911F910F91FF90EF909C
:100F30000895CF93DF93EC010E94DB038FA987FD17
:100F400006C0EB8DFC8D80819AA989238083DF9177
:100F5000CF9108950895AF92BF92CF92DF92EF9212
:100F6000FF920F931F93CF93DF93EC01E62E8A013C
:100F7000A22E0E94DB038FA987FD06C0EB8DFC8D9E
:100F800080819AA989238083ED8DFE8D80819CA923
:100F9000892380836E2DCE010E949903ED8DFE8DF5
:100FA00080819BA9892B8083D12CC12CB12CCA14A0
:100FB000DB04E4F48DA97801823079F488A98823D0
:100FC00061F0F801619171917F01CE010E9454039B
:100FD000FFEFCF1ADF0A8701EACFFFEFEF1AFF0A10
:100FE000F8016491CE010E949903F2CF8FA987FD89
:100FF00006C0EB8DFC8D808199A9892B8083DF91C0
:10100000CF911F910F91FF90EF90DF90CF90BF9005
:10101000AF900895FC0187A987FD06C0A38DB48D0C
:101020009C9181A9892B8C930895CF92DF92EF92A6
:10103000FF920F931F93CF93DF93EC017B0181E924
:1010400092E00E949907670182E0C81AD1080FEF69
:101050001FEF25E030E0A601BE0181E992E00E9489
:101060007D06BE016F5F7F4F25E030E0A60181E97C
:1010700092E00E947D06BE016150710925E030E0DA
:10108000A60181E992E00E947D0681E0E81AF1085C
:10109000BE016E5F7F4F23E030E0A70181E992E05F
:1010A0000E947D06BE016250710923E030E0A70175
:1010B00081E992E00E947D0681E992E0DF91CF9183
:1010C0001F910F91FF90EF90DF90CF900C940A0842
:1010D00090E0FC01EF51FA4F2491FC01EB50FA4FE4
:1010E0003491FC01ED5EF94FE491EE23C9F0222327
:1010F00039F0233001F1A8F4213019F1223029F11F
:10110000F0E0EE0FFF1FE75FF94FA591B4918FB7A5
:10111000F894EC91611126C030953E233C938FBF2B
:1011200008952730A9F02830C9F0243049F780917C
:1011300080008F7D03C0809180008F778093800036
:10114000DFCF84B58F7784BDDBCF84B58F7DFBCFB8
:101150008091B0008F778093B000D2CF8091B000A3
:101160008F7DF9CF3E2BDACFCF93DF9390E0FC0158
:10117000EB50FA4F24918D5E994FFC0184918823A6
:10118000D1F090E0880F991FFC01E952FA4FA59128
:10119000B491FC01E75FF94FC591D49161110EC084
:1011A0009FB7F8948C91E22FE0958E238C93288141
:1011B000E223E8839FBFDF91CF9108958FB7F89422
:1011C000EC91E22BEC938FBFF6CF3FB7F894809170
:1011D000C5019091C601A091C701B091C80126B583
:1011E000A89B05C02F3F19F00196A11DB11D3FBF5F
:1011F000BA2FA92F982F8827BC01CD01620F711D2E
:10120000811D911D42E0660F771F881F991F4A9527
:10121000D1F708958F929F92AF92BF92CF92DF92B3
:10122000EF92FF924B015C010E94E5086B017C018B
:101230000E94E5086C197D098E099F09683E73407C
:1012400081059105A8F321E0821A9108A108B1084F
:1012500088EEC80E83E0D81EE11CF11C81149104B5
:10126000A104B10429F7FF90EF90DF90CF90BF90D9
:10127000AF909F908F900895AF92BF92CF92DF92E0
:10128000EF92FF920F931F93CF93DF936C017B013B
:101290008B01040F151FEB015E01AE18BF08C017CC
:1012A000D10759F06991D601ED91FC910190F0813F
:1012B000E02DC6010995892B79F7C501DF91CF9102
:1012C0001F910F91FF90EF90DF90CF90BF90AF9064
:1012D0000895AF92BF92CF92DF92EF92FF920F9359
:1012E0001F93CF93DF93EC015B016A012150310919
:1012F0007901E60EF71E01501109040F151F8091A8
:10130000090190910A018617970739F48091070126
:10131000909108018E159F05A1F06AE2CE010E940E
:10132000C603B501CE010E945403B701CE010E944D
:101330005403B0920A01A0920901F0920801E092D0
:10134000070180910501909106018C159D0539F4E6
:10135000809103019091040180179107A1F06BE245
:10136000CE010E94C603B601CE010E945403B8010B
:10137000CE010E945403D0920601C0920501109341
:101380000401009303016CE2CE01DF91CF911F9124
:101390000F91FF90EF90DF90CF90BF90AF900C94A3
:1013A000C603611106C060E220E050E040E00C940A
:1013B000AB0761E2F9CF0F931F93CF93DF931F9297
:1013C000CDB7DEB78C016370DC0156966C935697EF
:1013D000623009F468C0633009F46AC0613009F40E
:1013E00056C088E4898380EF90E019969C938E9391
:1013F000189780E491E01B969C938E931A97C801EE
:101400000E94DB03D801D7968C91D79787FD09C03E
:101410005B96ED91FC915C978081D2969C9189239B
:101420008083D8015D96ED91FC915E978081D49682
:101430009C918923808366E3C8010E949903D801A7
:101440005D96ED91FC915E978081D3969C91D397A8
:10145000892B8083D5968C91823061F16981C80196
:101460000E949903D801D7968C91D79787FD09C020
:101470005B96ED91FC915C978081D1969C91892B34
:1014800080830F90DF91CF911F910F91089588E293
:10149000898380E491E0F8019187808780EF90E074
:1014A00093878287ACCF88E8898380EF90E09DCFD7
:1014B00088EEEECFF80180A9882381F269817A81D4
:1014C000C8010E945403CECF0895FC016370668B5F
:1014D0008481958126813781613039F0633029F02C
:1014E0009187808733872287089531872087938764
:1014F000828708952F923F924F925F926F927F92D0
:101500008F929F92AF92BF92CF92DF92EF92FF9213
:101510000F931F93CF93DF93CDB7DEB76A970FB6C4
:10152000F894DEBF0FBECDBF9A8F898F7A8369830F
:101530004A01D22E18870F833701BC2CDC01599643
:101540002D913C915A972115310509F015C1189636
:101550008D919C911997681779070CF0D7C11A964D
:101560008D919C91481759070CF0D0C14C2C512CEF
:10157000B6E0CB9E600D711D11247C876B8716161B
:1015800017060CF0C3C1EA2DF0E0FA87E98793E073
:10159000EE0FFF1F9A95E1F7F88BEF87CF01840FCD
:1015A000951F181619060CF0B1C1A98DBA8D589661
:1015B0008C91811104C0BFEABD1508F4D394A98DA4
:1015C000BA8DED91FC9111970284F385E02DCD0148
:1015D0000995B5E0DB9EC0011124E981FA81FC8305
:1015E000EB83312C212C9C0128593F4F388F2F8BB6
:1015F0004A2D50E05E8B4D8BEF89F88DE20DF31D87
:1016000044919E828D82D12CC12C69817A81620D98
:10161000731D7A8B698B842F90E09C8B8B8BE98D6B
:10162000FA8DA081B18140FF82C0F1E0BF126FC08E
:10163000AF126DC01C96ED91FC912F813885A401ED
:101640004C0D5D1D69897A89898D9A8D0995EB8983
:10165000FC89F595E7954E2F5FEFC51AD50A6D8188
:101660007E818D899E89680F791F7E836D8398E0C6
:10167000C916D10481F6AFEF2A1A3A0AEB81FC8130
:10168000E40DF51DFC83EB83F5E02F16310409F022
:10169000B3CF2F81388526153705B9F0A98DBA8DBE
:1016A000ED91FC91B1E0BB1257C0AB1255C06981FE
:1016B0007A816B5F7F4F0088F189E02D830128E0FC
:1016C00030E0A401898D9A8D0995A98DBA8DED918F
:1016D000FC9111970688F789E02DCD016A960FB627
:1016E000F894DEBF0FBECDBFDF91CF911F910F9158
:1016F000FF90EF90DF90CF90BF90AF909F908F9032
:101700007F906F905F904F903F902F9009941E961E
:10171000ED91FC91EF80F88409851A8592014D8145
:101720005E816B817C81898D9A8D099590CF2F8107
:1017300038852615370509F48ACF31E0B31207C082
:10174000A31205C01C96ED91FC91930178CF1E96D3
:10175000ED91FC917301E0CF6B857C85641975096F
:101760000684F785E02D73010F8518899201A40185
:10177000898D9A8D0995A9CFF90134969491329764
:1017800045915491D91AB7E0DB9E400D511D1124AB
:10179000F901259134913C8B2B8BFA0125903490E3
:1017A000FA013296749031963491398B3296649066
:1017B0003196449041E04C1518F04A1508F07FC06E
:1017C000662D062C000C770B7C836B83842D042CF8
:1017D000000C990B9E838D83A98DBA8DED91FC91A0
:1017E00011970284F385E02DCD010995512CD12C60
:1017F000C12CEA2DF0E0FA87E9872B2D30E03C87F9
:101800002B87A401440D511D47FC5A95588F4F8BCF
:1018100069817A81660D711D67FC7A957E876D8777
:101820007989C71608F051CF2C2D30E04D815E81AB
:10183000420F531FA985BA854A9FC0014B9F900D47
:101840005A9F900D1124FC01E80DF91DF88BEF87CC
:10185000852D612C4F89588D420F531F5E8B4D8B08
:10186000671408F050C044244394480E877041F434
:10187000C1010196EB89FC89E20DF31DD4901C0196
:10188000D7FE19C0A98DBA8DED91FC91662D70E03F
:10189000B1E0BB1219C0AB1217C02D853E85620F97
:1018A000731F0484F585E02D2F8138854D895E896D
:1018B000898D9A8D0995DD0C6394842DD1CF1E827C
:1018C0001D821C821B8288CF4B815C81640F751F37
:1018D000AB85BC856A9FC0016B9F900D7A9F900D70
:1018E000112469817A81680F791F0684F785E02DBC
:1018F000EF80F88409851A859D014F855889898D67
:101900009A8D0995D8CF570CC3948ACF6A960FB693
:10191000F894DEBF0FBECDBFDF91CF911F910F9125
:10192000FF90EF90DF90CF90BF90AF909F908F90FF
:101930007F906F905F904F903F902F9008958F927F
:101940009F92AF92CF92EF92FF920F931F93CF93FC
:10195000DF93EC01262F898D9A8D009709F051C0F5
:101960006A30D1F41D861C868D8948E0849F9001E1
:1019700011248E859F85820F931F9F878E8781E01C
:1019800090E0DF91CF911F910F91FF90EF90CF905A
:10199000AF909F908F9008956D3089F3CC88AD887B
:1019A0008F898823C1F08C859D8536E0C39E800D8C
:1019B000911D1124488559854817590764F44E85AF
:1019C0005F851D861C8638E0A39EC0011124840F0C
:1019D000951F9F878E87EA88FB88088919894E851D
:1019E0005F856C857D85CE010E947A0A2C898C8565
:1019F0009D8546E0249F800D911D11249D878C8735
:101A0000BECF6A3069F41D861C86FC013896E491CD
:101A10002D898E859F85E29F800D911D1124ADCF6C
:101A20006D3009F4ACCFFC0134963491631708F49F
:101A3000A6CF3296E491E61708F4A1CFFC013296C6
:101A400085909490462F431B342F47E0349F800CA1
:101A5000911C1124F401329634913196E491332390
:101A6000A9F1EE2399F1CC88F4013596E491AD8883
:101A70004F89442301F10E2E000CFF0BE30FF11DE3
:101A8000CE9EA001CF9E500D11246C857D85460F02
:101A9000571F68857985641775076CF44E855F85D7
:101AA0001D861C86FC013896E491AE9E400D511DAA
:101AB00011245F874E87EA88FB88088919894E853B
:101AC0005F856C857D85CE010E947A0AF40134968B
:101AD000E4912C898C859D85E29F800D911D1124B8
:101AE0008DCF6F927F928F929F92AF92BF92CF9243
:101AF000DF92EF92FF920F931F93CF93DF93EC014E
:101B00006B015A0139014801E881F9810284F385AA
:101B1000E02D0995E881F9810288F389E02D87019C
:101B20009301A501B601CE010995A501480D591DE6
:101B300041505109E881F9810288F389E02D930130
:101B4000B601CE010995E881F9810088F189E02D7F
:101B50009401A501B601CE010995C60CD71CB601AA
:101B600061507109E881F9810088F189E02D9401C3
:101B7000A501CE010995E881F9810688F789E02D54
:101B8000CE01DF91CF911F910F91FF90EF90DF90E9
:101B9000CF90BF90AF909F908F907F906F9009945F
:101BA0006F927F928F929F92AF92BF92CF92DF926D
:101BB000EF92FF920F931F93CF93DF935C01EB01A2
:101BC0006A01490138018701DC01ED91FC9162173E
:101BD000730719F5641675062CF0962D872D3A01BA
:101BE000C92ED82E9601261937092F5F3F4F048C36
:101BF000F58DE02DA301BE01C5010995DF91CF91BF
:101C00001F910F91FF90EF90DF90CF90BF90AF901A
:101C10009F908F907F906F9008954615570591F48F
:101C20002617370724F0892D4B01C22FD82F9E018C
:101C3000281939092F5F3F4F068CF78DE02DA6013B
:101C4000B401DACF0284F385E02D0995D501ED9139
:101C5000FC910488F589E02D83019401A601BE0161
:101C6000C5010995D501ED91FC910688F789E02D14
:101C7000C501DF91CF911F910F91FF90EF90DF9001
:101C8000CF90BF90AF909F908F907F906F9009946E
:101C9000EF92FF920F931F93DC011A960D911C9106
:101CA0001B9718962D913C911997ED91FC9100A0EE
:101CB000F1A1E02D7B0150E040E070E060E009958B
:101CC0001F910F91FF90EF9008954F925F926F9246
:101CD0007F928F929F92AF92BF92CF92DF92EF92BC
:101CE000FF920F931F93CF93DF936C012B015A0147
:101CF00039014801DC01ED91FC910284F385E02D6E
:101D00000995E201640C751CD601ED91FC91C61594
:101D1000D7055CF40088F189E02D87019401A501C5
:101D2000BE01C60109952196EFCF0688F789E02DFF
:101D3000C601DF91CF911F910F91FF90EF90DF903F
:101D4000CF90BF90AF909F908F907F906F905F905B
:101D50004F9009948F929F92AF92BF92CF92DF9251
:101D6000EF92FF920F931F93CF93DF93EC015B01F0
:101D70004A016901E881F9810284F385E02D099522
:101D800095012C0D3D1D21503109E881F981048810
:101D9000F589E02D78018401A401B501CE010995F2
:101DA000E881F9810688F789E02DCE01DF91CF9196
:101DB0001F910F91FF90EF90DF90CF90BF90AF9069
:101DC0009F908F9009948F929F92AF92BF92CF92E3
:101DD000DF92EF92FF920F931F93CF93DF93EC016B
:101DE0005B014A0169017801E881F9810284F38588
:101DF000E02D0995C80CD91C860101501109E88114
:101E0000F9810488F589E02D9501A401B501CE0181
:101E10000995E881F9810688F789E02DCE01DF91E7
:101E2000CF911F910F91FF90EF90DF90CF90BF90D7
:101E3000AF909F908F9009940895EF92FF920F9327
:101E40001F93DC01ED91FC9100A0F1A1E02D09951B
:101E50001F910F91FF90EF9008950F931F93DC0156
:101E6000ED91FC91068CF78DE02D09951F910F9156
:101E700008950F931F93DC01ED91FC91048CF58D77
:101E8000E02D09951F910F910895DC01ED91FC91D2
:101E90000084F185E02D09942F923F924F925F923A
:101EA0006F927F928F929F92AF92BF92CF92DF926A
:101EB000EF92FF920F931F93CF93DF9300D000D048
:101EC00000D0CDB7DEB73C016A013E832D83FC8292
:101ED000EB825801A41AB50AB7FE03C0B194A194CD
:101EE000B1088D809E80861A970A97FE03C0919450
:101EF000819491088A149B045CF0902F812F0D81AE
:101F00001E819D838E839C2D8D2D6B01692F782FD3
:101F10000C151D055CF09D818E817E836D83692F7C
:101F2000782F902F812F8601C92ED82E1601201AC6
:101F3000310A2B012D813E81421A530A57FE03C0FC
:101F4000519441945108710137FE03C03FEFE31AE9
:101F5000F30AF594E7948D819E81861797075CF5C7
:101F6000A1E0B0E0BA83A983C016D1064CF1D30139
:101F7000ED91FC910484F585E02D2B813C81A80135
:101F80006D817E818A149B041CF04D815E81B801B5
:101F9000C3010995E418F508F7FE0AC02D813E81BA
:101FA00089819A81280F391F3E832D83E20CF31C0F
:101FB0000F5F1F4FD9CF2FEF3FEF3A832983D4CF45
:101FC00026960FB6F894DEBF0FBECDBFDF91CF913E
:101FD0001F910F91FF90EF90DF90CF90BF90AF9047
:101FE0009F908F907F906F905F904F903F902F9039
:101FF0000895089520919A01260F3327331F213227
:102000003105ECF420915A02FC0190E080E024308C
:1020100069F082E00895A0919A012191AC0148589D
:102020005E4FA40FB52FB11D2C930196861798F320
:1020300080919A01680F60939A0180E0089581E091
:10204000089510925A0281E080935902109234024E
:1020500061E082E10E94680861E083E10E94680813
:10206000E9EBF0E080818E7F808380818D7F8083AB
:1020700088E48093B80085E48093BC000895CF93F2
:10208000DF9391E0909377018823B9F0C091B80075
:10209000D091BA008091BC008A7B8093BC0060E044
:1020A00082E10E94680860E083E10E9468080E9463
:1020B0002110D093BA00C093B800DF91CF9108955A
:1020C0008F929F92AF92BF92CF92DF92EF92FF9248
:1020D0000F931F93CF93DF93D0918302D13208F0F7
:1020E000D7C0182FC09182020E94E5086B017C01C5
:1020F00080915A0281116BC082E080935A02109342
:1021000059028FEF8093580210925702D0935602D3
:10211000A2E6B2E0E6E3F2E080E0D81391C01092CC
:10212000350280913502CC0FC82BC09335028091C7
:102130003402813009F088C0109234020E94E50810
:102140006B017C01809135028093BB0080915C0221
:1021500090915D02A0915E02B0915F02892B8A2B63
:102160008B2BA1F00E94E50800915C0210915D02AA
:1021700020915E0230915F026C197D098E099F09E2
:10218000061717072807390708F442C08091BC00DA
:1021900083FDD8CF85EC8093BC000E94E5086B01DD
:1021A0007C0180915A02823009F450C0809158021B
:1021B0008F3F09F46FC080915802803209F46CC0DF
:1021C00080915802803309F469C084E026C0809170
:1021D0005C0290915D02A0915E02B0915F02892B3A
:1021E0008A2B8B2B09F484CF0E94E50880905C0237
:1021F00090905D02A0905E02B0905F026C197D0924
:102200008E099F0986169706A806B90608F070CFB2
:1022100080915B020E943F1085E010926102109253
:10222000830210926002DF91CF911F910F91FF9076
:10223000EF90DF90CF90BF90AF909F908F900895D8
:102240009D9191938F5F69CF85EEA5CF80915C02C0
:1022500090915D02A0915E02B0915F02892B8A2B62
:102260008B2B09F49ECF0E94E50800915C0210912F
:102270005D0220915E0230915F026C197D098E092A
:102280009F09061717072807390708F08ACFC0CF1C
:1022900081E0C3CF80E0C1CF82E0BFCF83E0BDCF7C
:1022A00008950895E091CA018091C901E81730F4BA
:1022B000F0E0E553FE4F808190E008958FEF9FEFAF
:1022C00008959091CA018091C9012FEF3FEF9817AF
:1022D00048F4E92FF0E0E553FE4F208130E09F5FA6
:1022E0009093CA01C9010895CF92DF92EF92FF92B5
:1022F0000F931F93CF93DF937C01CB018A01209131
:102300006002222389F0EB016B01C40ED51ECC15AF
:10231000DD0569F06991D701ED91FC910190F081A3
:10232000E02DC7010995F3CF642F0E94FA0FC80171
:10233000DF91CF911F910F91FF90EF90DF90CF90A1
:102340000895CF93DF931F92CDB7DEB769832091B5
:1023500060022223F9F020918302203258F021E01C
:1023600030E0FC013383228390E080E00F90DF9126
:10237000CF91089580916102E82FF0E0EE59FD4F72
:10238000998190838F5F809361028093830281E0C3
:1023900090E0ECCF61E0CE0101960E94FA0FF7CFFA
:1023A000682F84E892E00C94A11190E080E00895F9
:1023B000E0E7F0E080818D7F80835E980895109241
:1023C000B200E0E7F0E0808182608083089560934E
:1023D00073017093740180937501909376016093FB
:1023E0006F0170937001809371019093720180E28C
:1023F00080936E0110926D0181E080936C01EDE697
:10240000F0E080818B7F80831092850010928400A1
:1024100080E596E49093890080938800EFE6F0E0F1
:102420008081826080830C94DF1170E060E081E93C
:1024300092E00E94480E88E78093020180EA90E0D3
:10244000909301018093000160EA70E088E790E0DA
:102450000C94150885ED8093BC0080915C029091EE
:102460005D02A0915E02B0915F020796A11DB11DB1
:1024700023E0B695A795979587952A95D1F7209152
:10248000BC0024FD03C010925A02089540915C02E2
:1024900050915D0260915E0270915F02452B462B68
:1024A000472B69F30097A105B10541F02AE22A956F
:1024B000F1F700C00197A109B109E1CF80915B025A
:1024C0000C943F108F929F92AF92BF92CF92DF9267
:1024D000EF92FF921F93CF93DF93162F91E090938B
:1024E000600292E590938202109261021092830240
:1024F000682F84E892E00E94A11181E00E946010A0
:102500008FE99FE00197F1F700C000000E94E50805
:102510006B017C0180915A02811165C081E080933A
:102520005A02809359029FEF9093580210925702DB
:10253000910F909356028093350280913502846A00
:102540008093350280913402813009F08AC0109264
:1025500034020E94E5086B017C0180913502809372
:10256000BB0080915C0290915D02A0915E02B091EF
:102570005F02892B8A2B8B2BA1F00E94E5088090AB
:102580005C0290905D02A0905E02B0905F026C19B8
:102590007D098E099F0986169706A806B90608F4D4
:1025A00043C08091BC0083FDD8CF85EC8093BC00F4
:1025B0000E94E5086B017C0180915A02813009F488
:1025C00052C080915702C12F811710F4C091570259
:1025D000E6E3F2E0ABECB1E080E08C1751F19191D1
:1025E0009D938F5FFACF80915C0290915D02A091E4
:1025F0005E02B0915F02892B8A2B8B2B09F48ACF64
:102600000E94E50880905C0290905D02A0905E02BE
:10261000B0905F026C197D098E099F098616970696
:10262000A806B90608F076CF80915B020E943F10A1
:10263000C0E01092CA01C093C90184E1E82E82E093
:10264000F82ED0E08091CA01C81779F11D1768F102
:1026500084E892E00E946111DF5FF70181937F01BE
:10266000F1CF85EEA3CF80915C0290915D02A091A5
:102670005E02B0915F02892B8A2B8B2B09F49CCFD1
:102680000E94E50880905C0290905D02A0905E023E
:10269000B0905F026C197D098E099F098616970616
:1026A000A806B90608F088CFBFCF8D2FDF91CF9154
:1026B0001F91FF90EF90DF90CF90BF90AF909F90D1
:1026C0008F9008950E946C1ACF92DF92EF92FF9242
:1026D0000F931F93CF93DF93EC016A017B01C11429
:1026E000D104E104F10431F4C12C42E1D42E4AE7D3
:1026F000E42EF12C8FA987FD07C061E00E94B40889
:1027000061E08FA90E94680861E088AD0E94B4086A
:1027100061E088AD0E9468088DA98111A3C040E0E6
:1027200052E16AE770E0C416D506E606F70640F403
:1027300076956795579547958F5F8630A1F787E027
:10274000982F906A969599A3809581708AA31BA271
:102750001CA21DA21EA21FB7F8948091BF01811177
:1027600027C0EDE1F6E08491EFEFF5E09491E82FDA
:10277000F0E0EE0FFF1FE952FA4FA591B491EC91F2
:10278000E92321F461E08AE00E94680861E08AE0C0
:102790000E94B4088CB580618CBD8CB580648CBD02
:1027A00061E08DE00E94B40861E08BE00E94B40813
:1027B0008091BF018F5F8093BF011FBF8EA987FDEE
:1027C00021C061E00E94B40861E08EA90E946808FF
:1027D00064E670E080E090E00E940A0960E08EA963
:1027E0000E94680864E670E080E090E00E940A09B8
:1027F00061E08EA90E94680868EC70E080E090E0DB
:102800000E940A098EA987FF0DC020E050E040E039
:1028100061E0CE010E94AB0766E970E080E090E0E5
:102820000E940A0908E615E0C8010196F8016491C2
:10283000662309F463C00E5F1F4FFC01F490EF2C78
:10284000E894E7F82E2DA801CE010E94AB070E0DEB
:10285000111DF7FEE9CF66E970E080E090E00E948C
:102860000A09E2CF03E116E0F12C8130B9F461E00E
:102870008AA50E94B40860E08AA50E94680861E009
:102880008CA50E94B40860E08CA50E9468088BA506
:1028900087FD94CF60E00E94B40890CFF801849146
:1028A000E82FF0E0EE0FFF1FE75FF94F859194915D
:1028B0002F8D38A12817390741F461E08F2D0E9430
:1028C000B40860E08F2D0E946808F3940F5F1F4FDB
:1028D000F4E1FF12E3CF61E08EA50E94B40861E04D
:1028E0008EA50E9468088FA587FD68CF61E00E94D1
:1028F000B40861E08FA50E94680860CF80EF90E087
:102900009987888780E491E09B878A87DF91CF91C0
:102910001F910F91FF90EF90DF90CF9008951F923D
:102920000F920FB60F9211242F933F938F939F9383
:10293000AF93BF938091C1019091C201A091C30157
:10294000B091C4013091C00123E0230F2D3758F519
:102950000196A11DB11D2093C0018093C1019093E8
:10296000C201A093C301B093C4018091C5019091AD
:10297000C601A091C701B091C8010196A11DB11D6A
:102980008093C5019093C601A093C701B093C8017D
:10299000BF91AF919F918F913F912F910F900FBE5B
:1029A0000F901F90189526E8230F0296A11DB11DC8
:1029B000D2CF1F920F920FB60F9211242F933F93F5
:1029C0004F935F936F937F938F939F93AF93BF9337
:1029D000EF93FF938091B900887F803609F44AC055
:1029E000F0F5883209F4A7C018F5803109F49BC0CE
:1029F000B8F4882309F4F9C0883009F494C0FF9131
:102A0000EF91BF91AF919F918F917F916F915F9166
:102A10004F913F912F910F900FBE0F901F901895DF
:102A2000883109F488C0803251F78093580214C06D
:102A3000803409F49DC040F48033B9F38833F9F64B
:102A40008093580285ECB0C0803509F485C0883584
:102A500009F496C0883499F60E942A12D0CF88399A
:102A600009F48CC038F5883729F050F4883611F015
:102A7000803729F683E080935A021092BE0157C036
:102A8000883809F47BC0803919F0803809F0B7CF55
:102A90008091BE01803208F071C0E091BE0181E0FA
:102AA0008E0F8093BE018091BB00F0E0E256FE4F96
:102AB00080833DC0803B39F0E0F4803A09F479C06E
:102AC000883A09F09CCF84E080935A0210929B01CF
:102AD00010929A01E0919801F091990109958091E5
:102AE0009A0181110FC081E080939A0110927801C0
:102AF00009C0803C09F4A6CF883C09F4A3CF883BE9
:102B000009F07DCFE0919B0181E08E0F80939B01C6
:102B1000F0E0E858FE4F80818093BB0090919B01CC
:102B200080919A0129C0809135028093BB0085EC89
:102B30008093BC0064CF9091570280915602981701
:102B400058F5E091570281E08E0F80935702F0E034
:102B5000EA5CFD4F8081E9CFE091570281E08E0F62
:102B6000809357028091BB00F0E0EA5CFD4F8083C8
:102B700090915702809156029817C8F285E8D8CFF5
:102B8000E091570281E08E0F809357028091BB0045
:102B9000F0E0EA5CFD4F80838091590281115CCFA7
:102BA00081E08093340284EA8093BC0010925A0240
:102BB00026CF85EC8093BC0010925A028091BE0112
:102BC000803230F4E091BE01F0E0E256FE4F108218
:102BD0006091BE0170E0E0919C01F0919D018EE951
:102BE00091E009951092BE010ACF1092580234CF9D
:102BF0001F920F920FB60F9211242F933F934F9372
:102C00005F936F937F938F939F93AF93BF93EF9354
:102C1000FF9380916701882329F180916C018111D4
:102C200021C08091650190916601019690936601A3
:102C30008093650180916501909166010B9790F0FA
:102C40001092660110926501609173017091740198
:102C5000809175019091760120916C01211102C043
:102C60000E94E711FF91EF91BF91AF919F918F91DA
:102C70007F916F915F914F913F912F910F900FBE78
:102C80000F901F9018951F920F920FB60F9211245C
:102C90008F929F92AF92BF92CF92DF92EF92FF926C
:102CA0000F931F932F933F934F935F936F937F9354
:102CB0008F939F93AF93BF93CF93EF93FF938091A5
:102CC000840090918500109285001092840029B1B3
:102CD000247030916401311126C0222341F08552C5
:102CE00095448735924018F481E080936401FF9108
:102CF000EF91CF91BF91AF919F918F917F916F9104
:102D00005F914F913F912F911F910F91FF90EF9005
:102D1000DF90CF90BF90AF909F908F900F900FBE9D
:102D20000F901F901895309164013130A1F421115A
:102D3000A1C08D5F91428735924008F09BC01092F0
:102D4000630110925F011092600110926101109274
:102D5000620182E0CACF30916401323041F6211124
:102D6000C6CF40915F015091600160916101709107
:102D70006201440F551F661F771F40935F015093F8
:102D80006001609361017093620189302CE09207C9
:102D900008F46CC080915F0190916001A091610185
:102DA000B0916201816080935F0190936001A09374
:102DB0006101B0936201809163018F5F8093630131
:102DC00080916301803209F092CF40915F01509170
:102DD0006001609161017091620180915F01909149
:102DE0006001A0916101B091620180905F019090BB
:102DF0006001A0906101B0906201C0905F01D0902D
:102E00006001E0906101F090620100915F0110911A
:102E1000600120916101309162013D3459F524E156
:102E200076956795579547952A95D1F74F702091DC
:102E30006801421711F041111DC0A3FB882780F9DA
:102E4000CA2DC770C730C9F490916701992391F0DA
:102E500090915E0189130EC01092670190915E01FE
:102E600081E0911180E080935E0104C0843393403F
:102E700008F4A1CF109264013ACF90916C019111A6
:102E800017C090E1299F900111242760880F880FB7
:102E9000880F822B482F50E070E060E0BA01552780
:102EA0004427835B482BCB01BA019D640E94E71144
:102EB00010926701809169018111DCCFC0936A0192
:102EC000CD2CDE2CEF2CFF24C0926B0181E080938F
:102ED0006901D0CF1F920F920FB60F9211248F93DA
:102EE00080E489B98F910F900FBE0F901F901895B5
:102EF0001F920F920FB60F9211242F933F934F936F
:102F00005F936F937F938F939F93AF93BF93EF9351
:102F1000FF93109285001092840080916D018230A1
:102F200009F43FC0B0F4882381F1813009F46DC009
:102F3000FF91EF91BF91AF919F918F917F916F9191
:102F40005F914F913F912F910F900FBE0F901F9067
:102F50001895833009F450C0843051F70E94D8117D
:102F600010926C0180916F008D7F80936F00DA9AD0
:102F700080916D00846080936D0081E08093670193
:102F80001092660110926501D3CF0E94D81188E299
:102F900093E2909389008093880081E080936D0193
:102FA000C7CF0E94D81180916F0190917001A091BC
:102FB0007101B0917201B7FF1CC084E39DE0909352
:102FC00089008093880080916F0190917001A09199
:102FD0007101B0917201880F991FAA1FBB1F8093C6
:102FE0006F0190937001A0937101B093720183E01F
:102FF000D5CF80E694E0E3CF80916E01815080933D
:103000006E0180916E01181654F40E94DF1180E663
:1030100094E0909389008093880082E0BFCF0E9463
:10302000DF1180E694E0909389008093880084E02B
:10303000B5CFE4E8F2E01382128288EE93E0A0E0DC
:10304000B0E084839583A683B7838FE191E0918379
:103050008083A1E9B2E013961C921E92129720EF92
:1030600030E015963C932E93149780E491E01796E8
:103070009C938E93169719963C932E9318971B96B4
:103080009C938E931A9756961C9256971D961C9257
:103090001E921C971F961C921E921E9781E05596B9
:1030A0008C93559754968C9354972FEF3FEF5396EC
:1030B0003C932E93529751963C932E93509757964C
:1030C0008C93579758961C9258975A961C921E921A
:1030D0005997D5961C92D5978FEFD6968C93D69705
:1030E0008AE0D7968C93D79789E0D8968C93D89717
:1030F000DA961C921E92D997DC961C921E92DB9750
:10310000DD961C92DD97DE961C92DE971092D0021F
:103110001092D1021092D2021092D30280E992E072
:1031200090969C938E935F97ECE1F6E0E491F0E04B
:10313000EE0FFF1FE75FF94F859194915E969C9388
:103140008E935D97EEEFF5E08491D3968C93D397B1
:10315000EDE1F6E0E491F0E0EE0FFF1FE75FF94FDD
:10316000259134915C963C932E935B97EFEFF5E0BD
:10317000E491D196EC93D197E095D296EC93D297C7
:10318000E82FE095D496EC93D49781E391E08D936A
:103190009C930895789484B5826084BD84B58160E1
:1031A00084BD85B5826085BD85B5816085BD809112
:1031B0006E00816080936E0010928100809181008A
:1031C0008260809381008091810081608093810082
:1031D000809180008160809380008091B100846044
:1031E0008093B1008091B00081608093B0008091A5
:1031F0007A00846080937A0080917A008260809364
:103200007A0080917A00816080937A0080917A00C0
:10321000806880937A001092C1001092CA011092C7
:10322000C90110926102109283020E94211080E570
:1032300091E1909399018093980181E591E19093B8
:103240009D0180939C018AE080936801109269013E
:10325000569A82E08093B000C1E0C093B10092ED35
:103260009093B300109280008093810052988091D7
:10327000680084608093680080916D008460809312
:103280006D007894C093600282E580938202109270
:1032900061021092830280EF90E00E94D01185E5D8
:1032A00090E00E94D01181E00E946010C093600203
:1032B00010926102109283028BEF90E00E94D01175
:1032C00090E080E00E94D01181E00E94601064E0F4
:1032D0008AEF0E946212843031F580E38093090204
:1032E00088E780930A0284E192E0CBEED1E028E106
:1032F00032E0DC01ED91CD01AE2FB0E074E0B59588
:10330000A7957A95E1F7A55FBE4F4C9148A3EF7062
:10331000F0E0E55FFE4F408149A322962817390768
:1033200041F71092130240E050E0BA0181E992E0C7
:103330000E9464130E941512C1E066E080E00E94C2
:1033400062128630D1F7E0911402E093EB01809194
:1033500015028093EC0180911902282F30E04091F2
:103360001602B4E04B9FA0011124B9017595679531
:103370007595679563707727462B572B5093EE0111
:103380004093ED014091170294E0499FA001112460
:1033900064E0359527956A95E1F723703327242B50
:1033A000352B3093F0012093EF0120911802A4E017
:1033B0002A9F90011124982F929596959695937037
:1033C000292B3093F2012093F101982F9095917061
:1033D0009093F301869581708C278093F401E93AEC
:1033E00078F080910201803F58F460910001709163
:1033F000010191E0980F9093020190E00E9415085E
:103400008091EB01883278F480910201882359F091
:1034100060910001709101019FEF980F909302015C
:1034200090E00E9415088091EC01893A90F060913B
:103430000001709101016115710559F0CB010197EF
:1034400090930101809300018091020190E00E941D
:1034500015088091EC01883298F460910001709118
:1034600001016034B1E07B0758F4CB0101969093E1
:103470000101809300018091020190E00E941508F3
:103480008091F301882309F458CF0E94151255CF7B
:103490000E94501A332312F48A1B9B0B0C94611A5E
:1034A000A29FB001B39FC001A39F700D811D112485
:1034B000911DB29F700D811D1124911D08950E94D0
:1034C000501AB7FF0895821B930B0895EE0FFF1F4C
:1034D0000590F491E02D099481E090E0F8940C942B
:0634E000711AF894FFCF01
:1034E600A00078FFFFFFFFFFFFFFFF3031323334CC
:1034F600353637383941424344454600000000A17D
:10350600117411D5111C0F3F0361115211000000F7
:10351600009F0C3C09D511F90F010499076707FEB6
:10352600067D06BE064C0F0A08DB09D1090F058089
:0E35360005F105480ED00D710D6413690900F2
:00000001FF
